:020000020000FC
:1000000000C00FE50DBF04E00EBF80E00FEF07BB9F
:1000100000E50DB901E00EB90FB900E004BB0FEF28
:1000200001BB23D010E03AD033B33F33E9F330FFC4
:100030000AD031FF11D032FF000033FF02C01CD0C4
:10004000F3CF13D0F1CF43954A3029F440E05395D4
:100050005A3009F450E0089563956A3029F460E05D
:1000600073957A3009F470E0089541E052E063E05E
:1000700074E0816001D00895172F10D080FF22D046
:10008000162F0CD080FF1ED0152F08D080FF1AD05D
:10009000142F04D080FF16D08E7F0895E8EDF0E095
:1000A000012F010FE00FF11DC895202D02D005D0C2
:1000B0000895779BFECF2FB90895779BFECFC29A04
:1000C000C298089594E6A4E6B4E6BA95F1F7AA9525
:1000D000D9F79A95C1F708952800EE001C008C000E
:0E00E000CA0089000900EC0008008800F70043
:00000001FF
